{
  "_format": "hh-sol-artifact-1",
  "contractName": "Allymals",
  "sourceName": "contracts/Allymals.sol",
  "abi": [
    {
      "inputs": [],
      "stateMutability": "nonpayable",
      "type": "constructor"
    },
    {
      "anonymous": false,
      "inputs": [
        {
          "indexed": true,
          "internalType": "address",
          "name": "owner",
          "type": "address"
        },
        {
          "indexed": true,
          "internalType": "address",
          "name": "approved",
          "type": "address"
        },
        {
          "indexed": true,
          "internalType": "uint256",
          "name": "tokenId",
          "type": "uint256"
        }
      ],
      "name": "Approval",
      "type": "event"
    },
    {
      "anonymous": false,
      "inputs": [
        {
          "indexed": true,
          "internalType": "address",
          "name": "owner",
          "type": "address"
        },
        {
          "indexed": true,
          "internalType": "address",
          "name": "operator",
          "type": "address"
        },
        {
          "indexed": false,
          "internalType": "bool",
          "name": "approved",
          "type": "bool"
        }
      ],
      "name": "ApprovalForAll",
      "type": "event"
    },
    {
      "anonymous": false,
      "inputs": [
        {
          "indexed": true,
          "internalType": "address",
          "name": "previousOwner",
          "type": "address"
        },
        {
          "indexed": true,
          "internalType": "address",
          "name": "newOwner",
          "type": "address"
        }
      ],
      "name": "OwnershipTransferred",
      "type": "event"
    },
    {
      "anonymous": false,
      "inputs": [
        {
          "indexed": false,
          "internalType": "address",
          "name": "account",
          "type": "address"
        },
        {
          "indexed": false,
          "internalType": "uint256",
          "name": "shares",
          "type": "uint256"
        }
      ],
      "name": "PayeeAdded",
      "type": "event"
    },
    {
      "anonymous": false,
      "inputs": [
        {
          "indexed": false,
          "internalType": "address",
          "name": "from",
          "type": "address"
        },
        {
          "indexed": false,
          "internalType": "uint256",
          "name": "amount",
          "type": "uint256"
        }
      ],
      "name": "PaymentReceived",
      "type": "event"
    },
    {
      "anonymous": false,
      "inputs": [
        {
          "indexed": false,
          "internalType": "address",
          "name": "to",
          "type": "address"
        },
        {
          "indexed": false,
          "internalType": "uint256",
          "name": "amount",
          "type": "uint256"
        }
      ],
      "name": "PaymentReleased",
      "type": "event"
    },
    {
      "anonymous": false,
      "inputs": [
        {
          "indexed": true,
          "internalType": "address",
          "name": "from",
          "type": "address"
        },
        {
          "indexed": true,
          "internalType": "address",
          "name": "to",
          "type": "address"
        },
        {
          "indexed": true,
          "internalType": "uint256",
          "name": "tokenId",
          "type": "uint256"
        }
      ],
      "name": "Transfer",
      "type": "event"
    },
    {
      "anonymous": false,
      "inputs": [
        {
          "indexed": false,
          "internalType": "string",
          "name": "_licenseText",
          "type": "string"
        }
      ],
      "name": "licenseisLocked",
      "type": "event"
    },
    {
      "inputs": [],
      "name": "ALLYMALS_PROVENANCE",
      "outputs": [
        {
          "internalType": "string",
          "name": "",
          "type": "string"
        }
      ],
      "stateMutability": "view",
      "type": "function"
    },
    {
      "inputs": [],
      "name": "LICENSE_TEXT",
      "outputs": [
        {
          "internalType": "string",
          "name": "",
          "type": "string"
        }
      ],
      "stateMutability": "view",
      "type": "function"
    },
    {
      "inputs": [],
      "name": "MAX_SUPPLY",
      "outputs": [
        {
          "internalType": "uint256",
          "name": "",
          "type": "uint256"
        }
      ],
      "stateMutability": "view",
      "type": "function"
    },
    {
      "inputs": [],
      "name": "MAX_TOKENS_PER_TRANSACTION",
      "outputs": [
        {
          "internalType": "uint256",
          "name": "",
          "type": "uint256"
        }
      ],
      "stateMutability": "view",
      "type": "function"
    },
    {
      "inputs": [],
      "name": "PRESALE_SUPPLY",
      "outputs": [
        {
          "internalType": "uint256",
          "name": "",
          "type": "uint256"
        }
      ],
      "stateMutability": "view",
      "type": "function"
    },
    {
      "inputs": [],
      "name": "_baseTokenURI",
      "outputs": [
        {
          "internalType": "string",
          "name": "",
          "type": "string"
        }
      ],
      "stateMutability": "view",
      "type": "function"
    },
    {
      "inputs": [],
      "name": "_presaleStartTime",
      "outputs": [
        {
          "internalType": "uint256",
          "name": "",
          "type": "uint256"
        }
      ],
      "stateMutability": "view",
      "type": "function"
    },
    {
      "inputs": [
        {
          "internalType": "address",
          "name": "_wallet",
          "type": "address"
        },
        {
          "internalType": "uint256",
          "name": "_count",
          "type": "uint256"
        }
      ],
      "name": "airdrop",
      "outputs": [],
      "stateMutability": "nonpayable",
      "type": "function"
    },
    {
      "inputs": [
        {
          "internalType": "address",
          "name": "to",
          "type": "address"
        },
        {
          "internalType": "uint256",
          "name": "tokenId",
          "type": "uint256"
        }
      ],
      "name": "approve",
      "outputs": [],
      "stateMutability": "nonpayable",
      "type": "function"
    },
    {
      "inputs": [
        {
          "internalType": "address",
          "name": "owner",
          "type": "address"
        }
      ],
      "name": "balanceOf",
      "outputs": [
        {
          "internalType": "uint256",
          "name": "",
          "type": "uint256"
        }
      ],
      "stateMutability": "view",
      "type": "function"
    },
    {
      "inputs": [
        {
          "internalType": "string",
          "name": "_license",
          "type": "string"
        }
      ],
      "name": "changeLicense",
      "outputs": [],
      "stateMutability": "nonpayable",
      "type": "function"
    },
    {
      "inputs": [
        {
          "internalType": "uint256",
          "name": "tokenId",
          "type": "uint256"
        }
      ],
      "name": "getApproved",
      "outputs": [
        {
          "internalType": "address",
          "name": "",
          "type": "address"
        }
      ],
      "stateMutability": "view",
      "type": "function"
    },
    {
      "inputs": [],
      "name": "getPresalePrice",
      "outputs": [
        {
          "internalType": "uint256",
          "name": "",
          "type": "uint256"
        }
      ],
      "stateMutability": "view",
      "type": "function"
    },
    {
      "inputs": [],
      "name": "getPrice",
      "outputs": [
        {
          "internalType": "uint256",
          "name": "",
          "type": "uint256"
        }
      ],
      "stateMutability": "view",
      "type": "function"
    },
    {
      "inputs": [
        {
          "internalType": "address",
          "name": "owner",
          "type": "address"
        },
        {
          "internalType": "address",
          "name": "operator",
          "type": "address"
        }
      ],
      "name": "isApprovedForAll",
      "outputs": [
        {
          "internalType": "bool",
          "name": "",
          "type": "bool"
        }
      ],
      "stateMutability": "view",
      "type": "function"
    },
    {
      "inputs": [],
      "name": "lockLicense",
      "outputs": [],
      "stateMutability": "nonpayable",
      "type": "function"
    },
    {
      "inputs": [
        {
          "internalType": "uint256",
          "name": "_count",
          "type": "uint256"
        }
      ],
      "name": "mint",
      "outputs": [],
      "stateMutability": "payable",
      "type": "function"
    },
    {
      "inputs": [],
      "name": "name",
      "outputs": [
        {
          "internalType": "string",
          "name": "",
          "type": "string"
        }
      ],
      "stateMutability": "view",
      "type": "function"
    },
    {
      "inputs": [],
      "name": "owner",
      "outputs": [
        {
          "internalType": "address",
          "name": "",
          "type": "address"
        }
      ],
      "stateMutability": "view",
      "type": "function"
    },
    {
      "inputs": [
        {
          "internalType": "uint256",
          "name": "tokenId",
          "type": "uint256"
        }
      ],
      "name": "ownerOf",
      "outputs": [
        {
          "internalType": "address",
          "name": "",
          "type": "address"
        }
      ],
      "stateMutability": "view",
      "type": "function"
    },
    {
      "inputs": [
        {
          "internalType": "uint256",
          "name": "index",
          "type": "uint256"
        }
      ],
      "name": "payee",
      "outputs": [
        {
          "internalType": "address",
          "name": "",
          "type": "address"
        }
      ],
      "stateMutability": "view",
      "type": "function"
    },
    {
      "inputs": [
        {
          "internalType": "address payable",
          "name": "account",
          "type": "address"
        }
      ],
      "name": "release",
      "outputs": [],
      "stateMutability": "nonpayable",
      "type": "function"
    },
    {
      "inputs": [
        {
          "internalType": "address",
          "name": "account",
          "type": "address"
        }
      ],
      "name": "released",
      "outputs": [
        {
          "internalType": "uint256",
          "name": "",
          "type": "uint256"
        }
      ],
      "stateMutability": "view",
      "type": "function"
    },
    {
      "inputs": [],
      "name": "renounceOwnership",
      "outputs": [],
      "stateMutability": "nonpayable",
      "type": "function"
    },
    {
      "inputs": [
        {
          "internalType": "address",
          "name": "from",
          "type": "address"
        },
        {
          "internalType": "address",
          "name": "to",
          "type": "address"
        },
        {
          "internalType": "uint256",
          "name": "tokenId",
          "type": "uint256"
        }
      ],
      "name": "safeTransferFrom",
      "outputs": [],
      "stateMutability": "nonpayable",
      "type": "function"
    },
    {
      "inputs": [
        {
          "internalType": "address",
          "name": "from",
          "type": "address"
        },
        {
          "internalType": "address",
          "name": "to",
          "type": "address"
        },
        {
          "internalType": "uint256",
          "name": "tokenId",
          "type": "uint256"
        },
        {
          "internalType": "bytes",
          "name": "_data",
          "type": "bytes"
        }
      ],
      "name": "safeTransferFrom",
      "outputs": [],
      "stateMutability": "nonpayable",
      "type": "function"
    },
    {
      "inputs": [
        {
          "internalType": "address",
          "name": "operator",
          "type": "address"
        },
        {
          "internalType": "bool",
          "name": "approved",
          "type": "bool"
        }
      ],
      "name": "setApprovalForAll",
      "outputs": [],
      "stateMutability": "nonpayable",
      "type": "function"
    },
    {
      "inputs": [
        {
          "internalType": "string",
          "name": "_newBaseURI",
          "type": "string"
        }
      ],
      "name": "setBaseURI",
      "outputs": [],
      "stateMutability": "nonpayable",
      "type": "function"
    },
    {
      "inputs": [
        {
          "internalType": "uint256",
          "name": "_newMaxSupply",
          "type": "uint256"
        }
      ],
      "name": "setMaxSupply",
      "outputs": [],
      "stateMutability": "nonpayable",
      "type": "function"
    },
    {
      "inputs": [
        {
          "internalType": "uint256",
          "name": "_newPresalePrice",
          "type": "uint256"
        }
      ],
      "name": "setPresalePrice",
      "outputs": [],
      "stateMutability": "nonpayable",
      "type": "function"
    },
    {
      "inputs": [
        {
          "internalType": "uint256",
          "name": "_newStartTime",
          "type": "uint256"
        }
      ],
      "name": "setPresaleStartTime",
      "outputs": [],
      "stateMutability": "nonpayable",
      "type": "function"
    },
    {
      "inputs": [
        {
          "internalType": "uint256",
          "name": "_newPresaleSupply",
          "type": "uint256"
        }
      ],
      "name": "setPresaleSupply",
      "outputs": [],
      "stateMutability": "nonpayable",
      "type": "function"
    },
    {
      "inputs": [
        {
          "internalType": "uint256",
          "name": "_newPrice",
          "type": "uint256"
        }
      ],
      "name": "setPrice",
      "outputs": [],
      "stateMutability": "nonpayable",
      "type": "function"
    },
    {
      "inputs": [
        {
          "internalType": "string",
          "name": "_provenanceHash",
          "type": "string"
        }
      ],
      "name": "setProvenanceHash",
      "outputs": [],
      "stateMutability": "nonpayable",
      "type": "function"
    },
    {
      "inputs": [
        {
          "internalType": "address",
          "name": "account",
          "type": "address"
        }
      ],
      "name": "shares",
      "outputs": [
        {
          "internalType": "uint256",
          "name": "",
          "type": "uint256"
        }
      ],
      "stateMutability": "view",
      "type": "function"
    },
    {
      "inputs": [
        {
          "internalType": "bytes4",
          "name": "interfaceId",
          "type": "bytes4"
        }
      ],
      "name": "supportsInterface",
      "outputs": [
        {
          "internalType": "bool",
          "name": "",
          "type": "bool"
        }
      ],
      "stateMutability": "view",
      "type": "function"
    },
    {
      "inputs": [],
      "name": "symbol",
      "outputs": [
        {
          "internalType": "string",
          "name": "",
          "type": "string"
        }
      ],
      "stateMutability": "view",
      "type": "function"
    },
    {
      "inputs": [
        {
          "internalType": "uint256",
          "name": "index",
          "type": "uint256"
        }
      ],
      "name": "tokenByIndex",
      "outputs": [
        {
          "internalType": "uint256",
          "name": "",
          "type": "uint256"
        }
      ],
      "stateMutability": "view",
      "type": "function"
    },
    {
      "inputs": [
        {
          "internalType": "uint256",
          "name": "_id",
          "type": "uint256"
        }
      ],
      "name": "tokenLicense",
      "outputs": [
        {
          "internalType": "string",
          "name": "",
          "type": "string"
        }
      ],
      "stateMutability": "view",
      "type": "function"
    },
    {
      "inputs": [
        {
          "internalType": "address",
          "name": "owner",
          "type": "address"
        },
        {
          "internalType": "uint256",
          "name": "index",
          "type": "uint256"
        }
      ],
      "name": "tokenOfOwnerByIndex",
      "outputs": [
        {
          "internalType": "uint256",
          "name": "",
          "type": "uint256"
        }
      ],
      "stateMutability": "view",
      "type": "function"
    },
    {
      "inputs": [
        {
          "internalType": "uint256",
          "name": "tokenId",
          "type": "uint256"
        }
      ],
      "name": "tokenURI",
      "outputs": [
        {
          "internalType": "string",
          "name": "",
          "type": "string"
        }
      ],
      "stateMutability": "view",
      "type": "function"
    },
    {
      "inputs": [],
      "name": "totalReleased",
      "outputs": [
        {
          "internalType": "uint256",
          "name": "",
          "type": "uint256"
        }
      ],
      "stateMutability": "view",
      "type": "function"
    },
    {
      "inputs": [],
      "name": "totalShares",
      "outputs": [
        {
          "internalType": "uint256",
          "name": "",
          "type": "uint256"
        }
      ],
      "stateMutability": "view",
      "type": "function"
    },
    {
      "inputs": [],
      "name": "totalSupply",
      "outputs": [
        {
          "internalType": "uint256",
          "name": "",
          "type": "uint256"
        }
      ],
      "stateMutability": "view",
      "type": "function"
    },
    {
      "inputs": [
        {
          "internalType": "address",
          "name": "from",
          "type": "address"
        },
        {
          "internalType": "address",
          "name": "to",
          "type": "address"
        },
        {
          "internalType": "uint256",
          "name": "tokenId",
          "type": "uint256"
        }
      ],
      "name": "transferFrom",
      "outputs": [],
      "stateMutability": "nonpayable",
      "type": "function"
    },
    {
      "inputs": [
        {
          "internalType": "address",
          "name": "newOwner",
          "type": "address"
        }
      ],
      "name": "transferOwnership",
      "outputs": [],
      "stateMutability": "nonpayable",
      "type": "function"
    },
    {
      "inputs": [
        {
          "internalType": "address",
          "name": "_owner",
          "type": "address"
        }
      ],
      "name": "walletOfOwner",
      "outputs": [
        {
          "internalType": "uint256[]",
          "name": "",
          "type": "uint256[]"
        }
      ],
      "stateMutability": "view",
      "type": "function"
    },
    {
      "stateMutability": "payable",
      "type": "receive"
    }
  ],
  "bytecode": "0x6080604052666a94d74f43000060105566470de4df8200006011556040518060400160405280600581526020017f2e6a736f6e00000000000000000000000000000000000000000000000000000081525060129080519060200190620000679291906200096f565b506040518060600160405280602381526020016200637d6023913960139080519060200190620000999291906200096f565b506040518060200160405280600081525060149080519060200190620000c19291906200096f565b506014601555610c8a6016556101f460175563616eeb806018556040518060200160405280600081525060199080519060200190620001029291906200096f565b506000601a60006101000a81548160ff0219169083151502179055507343797b21e76f93adb2377376187ba44d4715a8de601c60006101000a81548173ffffffffffffffffffffffffffffffffffffffff021916908373ffffffffffffffffffffffffffffffffffffffff160217905550731b822133c955cd52c6005129eae10aef80382594601d60006101000a81548173ffffffffffffffffffffffffffffffffffffffff021916908373ffffffffffffffffffffffffffffffffffffffff16021790555073b7edf3cbb58ecb74bde6298294c7aab339f3ce4a601e60006101000a81548173ffffffffffffffffffffffffffffffffffffffff021916908373ffffffffffffffffffffffffffffffffffffffff1602179055506040518060600160405280601c60009054906101000a900473ffffffffffffffffffffffffffffffffffffffff1673ffffffffffffffffffffffffffffffffffffffff1673ffffffffffffffffffffffffffffffffffffffff168152602001601d60009054906101000a900473ffffffffffffffffffffffffffffffffffffffff1673ffffffffffffffffffffffffffffffffffffffff1673ffffffffffffffffffffffffffffffffffffffff168152602001601e60009054906101000a900473ffffffffffffffffffffffffffffffffffffffff1673ffffffffffffffffffffffffffffffffffffffff1673ffffffffffffffffffffffffffffffffffffffff16815250601f9060036200033492919062000a00565b506040518060600160405280600f60ff168152602001604660ff168152602001600f60ff1681525060209060036200036e92919062000a8f565b503480156200037c57600080fd5b50601f8054806020026020016040519081016040528092919081815260200182805480156200040157602002820191906000526020600020905b8160009054906101000a900473ffffffffffffffffffffffffffffffffffffffff1673ffffffffffffffffffffffffffffffffffffffff1681526020019060010190808311620003b6575b505050505060208054806020026020016040519081016040528092919081815260200182805480156200045457602002820191906000526020600020905b8154815260200190600101908083116200043f575b50505050506040518060400160405280601b81526020017f416c6c796d616c73205371756966667920436f6c6c656374696f6e00000000008152506040518060400160405280600381526020017f41534300000000000000000000000000000000000000000000000000000000008152508160009080519060200190620004dd9291906200096f565b508060019080519060200190620004f69291906200096f565b505050620005196200050d6200066760201b60201c565b6200066f60201b60201c565b805182511462000560576040517f08c379a0000000000000000000000000000000000000000000000000000000008152600401620005579062000d32565b60405180910390fd5b6000825111620005a7576040517f08c379a00000000000000000000000000000000000000000000000000000000081526004016200059e9062000d76565b60405180910390fd5b60005b82518110156200065e5762000648838281518110620005f2577f4e487b7100000000000000000000000000000000000000000000000000000000600052603260045260246000fd5b602002602001015183838151811062000634577f4e487b7100000000000000000000000000000000000000000000000000000000600052603260045260246000fd5b60200260200101516200073560201b60201c565b8080620006559062000e9c565b915050620005aa565b50505062000f48565b600033905090565b6000600a60009054906101000a900473ffffffffffffffffffffffffffffffffffffffff16905081600a60006101000a81548173ffffffffffffffffffffffffffffffffffffffff021916908373ffffffffffffffffffffffffffffffffffffffff1602179055508173ffffffffffffffffffffffffffffffffffffffff168173ffffffffffffffffffffffffffffffffffffffff167f8be0079c531659141344cd1fd0a4f28419497f9722a3daafe3b4186f6b6457e060405160405180910390a35050565b600073ffffffffffffffffffffffffffffffffffffffff168273ffffffffffffffffffffffffffffffffffffffff161415620007a8576040517f08c379a00000000000000000000000000000000000000000000000000000000081526004016200079f9062000d10565b60405180910390fd5b60008111620007ee576040517f08c379a0000000000000000000000000000000000000000000000000000000008152600401620007e59062000d98565b60405180910390fd5b6000600d60008473ffffffffffffffffffffffffffffffffffffffff1673ffffffffffffffffffffffffffffffffffffffff168152602001908152602001600020541462000873576040517f08c379a00000000000000000000000000000000000000000000000000000000081526004016200086a9062000d54565b60405180910390fd5b600f829080600181540180825580915050600190039060005260206000200160009091909190916101000a81548173ffffffffffffffffffffffffffffffffffffffff021916908373ffffffffffffffffffffffffffffffffffffffff16021790555080600d60008473ffffffffffffffffffffffffffffffffffffffff1673ffffffffffffffffffffffffffffffffffffffff1681526020019081526020016000208190555080600b546200092a919062000dcb565b600b819055507f40c340f65e17194d14ddddb073d3c9f888e3cb52b5aae0c6c7706b4fbc905fac82826040516200096392919062000ce3565b60405180910390a15050565b8280546200097d9062000e66565b90600052602060002090601f016020900481019282620009a15760008555620009ed565b82601f10620009bc57805160ff1916838001178555620009ed565b82800160010185558215620009ed579182015b82811115620009ec578251825591602001919060010190620009cf565b5b509050620009fc919062000ae6565b5090565b82805482825590600052602060002090810192821562000a7c579160200282015b8281111562000a7b5782518260006101000a81548173ffffffffffffffffffffffffffffffffffffffff021916908373ffffffffffffffffffffffffffffffffffffffff1602179055509160200191906001019062000a21565b5b50905062000a8b919062000ae6565b5090565b82805482825590600052602060002090810192821562000ad3579160200282015b8281111562000ad2578251829060ff1690559160200191906001019062000ab0565b5b50905062000ae2919062000ae6565b5090565b5b8082111562000b0157600081600090555060010162000ae7565b5090565b62000b108162000e28565b82525050565b600062000b25602c8362000dba565b91507f5061796d656e7453706c69747465723a206163636f756e74206973207468652060008301527f7a65726f206164647265737300000000000000000000000000000000000000006020830152604082019050919050565b600062000b8d60328362000dba565b91507f5061796d656e7453706c69747465723a2070617965657320616e64207368617260008301527f6573206c656e677468206d69736d6174636800000000000000000000000000006020830152604082019050919050565b600062000bf5602b8362000dba565b91507f5061796d656e7453706c69747465723a206163636f756e7420616c726561647960008301527f20686173207368617265730000000000000000000000000000000000000000006020830152604082019050919050565b600062000c5d601a8362000dba565b91507f5061796d656e7453706c69747465723a206e6f207061796565730000000000006000830152602082019050919050565b600062000c9f601d8362000dba565b91507f5061796d656e7453706c69747465723a207368617265732061726520300000006000830152602082019050919050565b62000cdd8162000e5c565b82525050565b600060408201905062000cfa600083018562000b05565b62000d09602083018462000cd2565b9392505050565b6000602082019050818103600083015262000d2b8162000b16565b9050919050565b6000602082019050818103600083015262000d4d8162000b7e565b9050919050565b6000602082019050818103600083015262000d6f8162000be6565b9050919050565b6000602082019050818103600083015262000d918162000c4e565b9050919050565b6000602082019050818103600083015262000db38162000c90565b9050919050565b600082825260208201905092915050565b600062000dd88262000e5c565b915062000de58362000e5c565b9250827fffffffffffffffffffffffffffffffffffffffffffffffffffffffffffffffff0382111562000e1d5762000e1c62000eea565b5b828201905092915050565b600062000e358262000e3c565b9050919050565b600073ffffffffffffffffffffffffffffffffffffffff82169050919050565b6000819050919050565b6000600282049050600182168062000e7f57607f821691505b6020821081141562000e965762000e9562000f19565b5b50919050565b600062000ea98262000e5c565b91507fffffffffffffffffffffffffffffffffffffffffffffffffffffffffffffffff82141562000edf5762000ede62000eea565b5b600182019050919050565b7f4e487b7100000000000000000000000000000000000000000000000000000000600052601160045260246000fd5b7f4e487b7100000000000000000000000000000000000000000000000000000000600052602260045260246000fd5b6154258062000f586000396000f3fe60806040526004361061028c5760003560e01c806377ee4b0f1161015a578063b09904b5116100c1578063cfc86f7b1161007a578063cfc86f7b14610a2c578063d9b137b214610a57578063e33b7de314610a94578063e5a879f014610abf578063e985e9c514610aea578063f2fde38b14610b27576102d3565b8063b09904b514610920578063b88d4fde14610949578063b96502cb14610972578063bf4702fc1461099b578063c87b56dd146109b2578063ce7c2ac2146109ef576102d3565b80639852595c116101135780639852595c1461081d57806398d5fdca1461085a5780639c3e72bd14610885578063a0712d68146108b0578063a22cb465146108cc578063a91b9b2a146108f5576102d3565b806377ee4b0f1461070d5780638b83209b146107385780638ba4cc3c146107755780638da5cb5b1461079e57806391b7f5ed146107c957806395d89b41146107f2576102d3565b80633549345e116101fe57806355f804b3116101b757806355f804b3146105ff5780636352211e146106285780636f8b44b01461066557806370a082311461068e578063715018a6146106cb57806373138e4f146106e2576102d3565b80633549345e146104dd5780633a98ef391461050657806342842e0e14610531578063438b63001461055a5780634f6ccce7146105975780634fce1de3146105d4576102d3565b806318160ddd1161025057806318160ddd146103cf57806319165587146103fa57806323b872dd14610423578063296cab551461044c5780632f745c591461047557806332cb6b0c146104b2576102d3565b806301ffc9a7146102d857806306fdde0314610315578063081812fc14610340578063095ea7b31461037d57806310969523146103a6576102d3565b366102d3577f6ef95f06320e7a25a04a175ca677b7052bdd97131872c2192525a629f51be7706102ba610b50565b346040516102c9929190614a5e565b60405180910390a1005b600080fd5b3480156102e457600080fd5b506102ff60048036038101906102fa9190613c63565b610b58565b60405161030c9190614aa9565b60405180910390f35b34801561032157600080fd5b5061032a610bd2565b6040516103379190614ac4565b60405180910390f35b34801561034c57600080fd5b5061036760048036038101906103629190613cf6565b610c64565b60405161037491906149ce565b60405180910390f35b34801561038957600080fd5b506103a4600480360381019061039f9190613c27565b610ce9565b005b3480156103b257600080fd5b506103cd60048036038101906103c89190613cb5565b610e01565b005b3480156103db57600080fd5b506103e4610e97565b6040516103f19190614ea8565b60405180910390f35b34801561040657600080fd5b50610421600480360381019061041c9190613abc565b610ea4565b005b34801561042f57600080fd5b5061044a60048036038101906104459190613b21565b61110c565b005b34801561045857600080fd5b50610473600480360381019061046e9190613cf6565b61116c565b005b34801561048157600080fd5b5061049c60048036038101906104979190613c27565b6111f2565b6040516104a99190614ea8565b60405180910390f35b3480156104be57600080fd5b506104c7611297565b6040516104d49190614ea8565b60405180910390f35b3480156104e957600080fd5b5061050460048036038101906104ff9190613cf6565b61129d565b005b34801561051257600080fd5b5061051b611323565b6040516105289190614ea8565b60405180910390f35b34801561053d57600080fd5b5061055860048036038101906105539190613b21565b61132d565b005b34801561056657600080fd5b50610581600480360381019061057c9190613a93565b61134d565b60405161058e9190614a87565b60405180910390f35b3480156105a357600080fd5b506105be60048036038101906105b99190613cf6565b611447565b6040516105cb9190614ea8565b60405180910390f35b3480156105e057600080fd5b506105e96114de565b6040516105f69190614ea8565b60405180910390f35b34801561060b57600080fd5b5061062660048036038101906106219190613cb5565b6114e4565b005b34801561063457600080fd5b5061064f600480360381019061064a9190613cf6565b61157a565b60405161065c91906149ce565b60405180910390f35b34801561067157600080fd5b5061068c60048036038101906106879190613cf6565b61162c565b005b34801561069a57600080fd5b506106b560048036038101906106b09190613a93565b6116b2565b6040516106c29190614ea8565b60405180910390f35b3480156106d757600080fd5b506106e061176a565b005b3480156106ee57600080fd5b506106f76117f2565b6040516107049190614ea8565b60405180910390f35b34801561071957600080fd5b506107226117f8565b60405161072f9190614ea8565b60405180910390f35b34801561074457600080fd5b5061075f600480360381019061075a9190613cf6565b611802565b60405161076c91906149ce565b60405180910390f35b34801561078157600080fd5b5061079c60048036038101906107979190613c27565b611870565b005b3480156107aa57600080fd5b506107b3611981565b6040516107c091906149ce565b60405180910390f35b3480156107d557600080fd5b506107f060048036038101906107eb9190613cf6565b6119ab565b005b3480156107fe57600080fd5b50610807611a31565b6040516108149190614ac4565b60405180910390f35b34801561082957600080fd5b50610844600480360381019061083f9190613a93565b611ac3565b6040516108519190614ea8565b60405180910390f35b34801561086657600080fd5b5061086f611b0c565b60405161087c9190614ea8565b60405180910390f35b34801561089157600080fd5b5061089a611b16565b6040516108a79190614ac4565b60405180910390f35b6108ca60048036038101906108c59190613cf6565b611ba4565b005b3480156108d857600080fd5b506108f360048036038101906108ee9190613beb565b611d72565b005b34801561090157600080fd5b5061090a611ef3565b6040516109179190614ea8565b60405180910390f35b34801561092c57600080fd5b5061094760048036038101906109429190613cb5565b611ef9565b005b34801561095557600080fd5b50610970600480360381019061096b9190613b70565b611fe5565b005b34801561097e57600080fd5b5061099960048036038101906109949190613cf6565b612047565b005b3480156109a757600080fd5b506109b06120cd565b005b3480156109be57600080fd5b506109d960048036038101906109d49190613cf6565b61219e565b6040516109e69190614ac4565b60405180910390f35b3480156109fb57600080fd5b50610a166004803603810190610a119190613a93565b612248565b604051610a239190614ea8565b60405180910390f35b348015610a3857600080fd5b50610a41612291565b604051610a4e9190614ac4565b60405180910390f35b348015610a6357600080fd5b50610a7e6004803603810190610a799190613cf6565b61231f565b604051610a8b9190614ac4565b60405180910390f35b348015610aa057600080fd5b50610aa96123fc565b604051610ab69190614ea8565b60405180910390f35b348015610acb57600080fd5b50610ad4612406565b604051610ae19190614ac4565b60405180910390f35b348015610af657600080fd5b50610b116004803603810190610b0c9190613ae5565b612494565b604051610b1e9190614aa9565b60405180910390f35b348015610b3357600080fd5b50610b4e6004803603810190610b499190613a93565b612528565b005b600033905090565b60007f780e9d63000000000000000000000000000000000000000000000000000000007bffffffffffffffffffffffffffffffffffffffffffffffffffffffff1916827bffffffffffffffffffffffffffffffffffffffffffffffffffffffff19161480610bcb5750610bca82612620565b5b9050919050565b606060008054610be190615203565b80601f0160208091040260200160405190810160405280929190818152602001828054610c0d90615203565b8015610c5a5780601f10610c2f57610100808354040283529160200191610c5a565b820191906000526020600020905b815481529060010190602001808311610c3d57829003601f168201915b5050505050905090565b6000610c6f82612702565b610cae576040517f08c379a0000000000000000000000000000000000000000000000000000000008152600401610ca590614d28565b60405180910390fd5b6004600083815260200190815260200160002060009054906101000a900473ffffffffffffffffffffffffffffffffffffffff169050919050565b6000610cf48261157a565b90508073ffffffffffffffffffffffffffffffffffffffff168373ffffffffffffffffffffffffffffffffffffffff161415610d65576040517f08c379a0000000000000000000000000000000000000000000000000000000008152600401610d5c90614de8565b60405180910390fd5b8073ffffffffffffffffffffffffffffffffffffffff16610d84610b50565b73ffffffffffffffffffffffffffffffffffffffff161480610db35750610db281610dad610b50565b612494565b5b610df2576040517f08c379a0000000000000000000000000000000000000000000000000000000008152600401610de990614c88565b60405180910390fd5b610dfc838361276e565b505050565b610e09610b50565b73ffffffffffffffffffffffffffffffffffffffff16610e27611981565b73ffffffffffffffffffffffffffffffffffffffff1614610e7d576040517f08c379a0000000000000000000000000000000000000000000000000000000008152600401610e7490614d48565b60405180910390fd5b8060149080519060200190610e939291906138a2565b5050565b6000600880549050905090565b6000600d60008373ffffffffffffffffffffffffffffffffffffffff1673ffffffffffffffffffffffffffffffffffffffff1681526020019081526020016000205411610f26576040517f08c379a0000000000000000000000000000000000000000000000000000000008152600401610f1d90614ba8565b60405180910390fd5b6000600c5447610f369190614ff0565b90506000600e60008473ffffffffffffffffffffffffffffffffffffffff1673ffffffffffffffffffffffffffffffffffffffff16815260200190815260200160002054600b54600d60008673ffffffffffffffffffffffffffffffffffffffff1673ffffffffffffffffffffffffffffffffffffffff1681526020019081526020016000205484610fc89190615077565b610fd29190615046565b610fdc91906150d1565b90506000811415611022576040517f08c379a000000000000000000000000000000000000000000000000000000000815260040161101990614c68565b60405180910390fd5b80600e60008573ffffffffffffffffffffffffffffffffffffffff1673ffffffffffffffffffffffffffffffffffffffff1681526020019081526020016000205461106d9190614ff0565b600e60008573ffffffffffffffffffffffffffffffffffffffff1673ffffffffffffffffffffffffffffffffffffffff1681526020019081526020016000208190555080600c546110be9190614ff0565b600c819055506110ce8382612827565b7fdf20fd1e76bc69d672e4814fafb2c449bba3a5369d8359adf9e05e6fde87b05683826040516110ff9291906149e9565b60405180910390a1505050565b61111d611117610b50565b8261291b565b61115c576040517f08c379a000000000000000000000000000000000000000000000000000000000815260040161115390614e68565b60405180910390fd5b6111678383836129f9565b505050565b611174610b50565b73ffffffffffffffffffffffffffffffffffffffff16611192611981565b73ffffffffffffffffffffffffffffffffffffffff16146111e8576040517f08c379a00000000000000000000000000000000000000000000000000000000081526004016111df90614d48565b60405180910390fd5b8060188190555050565b60006111fd836116b2565b821061123e576040517f08c379a000000000000000000000000000000000000000000000000000000000815260040161123590614b28565b60405180910390fd5b600660008473ffffffffffffffffffffffffffffffffffffffff1673ffffffffffffffffffffffffffffffffffffffff168152602001908152602001600020600083815260200190815260200160002054905092915050565b60165481565b6112a5610b50565b73ffffffffffffffffffffffffffffffffffffffff166112c3611981565b73ffffffffffffffffffffffffffffffffffffffff1614611319576040517f08c379a000000000000000000000000000000000000000000000000000000000815260040161131090614d48565b60405180910390fd5b8060118190555050565b6000600b54905090565b61134883838360405180602001604052806000815250611fe5565b505050565b6060600061135a836116b2565b905060008167ffffffffffffffff81111561139e577f4e487b7100000000000000000000000000000000000000000000000000000000600052604160045260246000fd5b6040519080825280602002602001820160405280156113cc5781602001602082028036833780820191505090505b50905060005b8281101561143c576113e485826111f2565b82828151811061141d577f4e487b7100000000000000000000000000000000000000000000000000000000600052603260045260246000fd5b602002602001018181525050808061143490615235565b9150506113d2565b508092505050919050565b6000611451610e97565b8210611492576040517f08c379a000000000000000000000000000000000000000000000000000000000815260040161148990614e88565b60405180910390fd5b600882815481106114cc577f4e487b7100000000000000000000000000000000000000000000000000000000600052603260045260246000fd5b90600052602060002001549050919050565b60155481565b6114ec610b50565b73ffffffffffffffffffffffffffffffffffffffff1661150a611981565b73ffffffffffffffffffffffffffffffffffffffff1614611560576040517f08c379a000000000000000000000000000000000000000000000000000000000815260040161155790614d48565b60405180910390fd5b80601390805190602001906115769291906138a2565b5050565b6000806002600084815260200190815260200160002060009054906101000a900473ffffffffffffffffffffffffffffffffffffffff169050600073ffffffffffffffffffffffffffffffffffffffff168173ffffffffffffffffffffffffffffffffffffffff161415611623576040517f08c379a000000000000000000000000000000000000000000000000000000000815260040161161a90614cc8565b60405180910390fd5b80915050919050565b611634610b50565b73ffffffffffffffffffffffffffffffffffffffff16611652611981565b73ffffffffffffffffffffffffffffffffffffffff16146116a8576040517f08c379a000000000000000000000000000000000000000000000000000000000815260040161169f90614d48565b60405180910390fd5b8060168190555050565b60008073ffffffffffffffffffffffffffffffffffffffff168273ffffffffffffffffffffffffffffffffffffffff161415611723576040517f08c379a000000000000000000000000000000000000000000000000000000000815260040161171a90614ca8565b60405180910390fd5b600360008373ffffffffffffffffffffffffffffffffffffffff1673ffffffffffffffffffffffffffffffffffffffff168152602001908152602001600020549050919050565b611772610b50565b73ffffffffffffffffffffffffffffffffffffffff16611790611981565b73ffffffffffffffffffffffffffffffffffffffff16146117e6576040517f08c379a00000000000000000000000000000000000000000000000000000000081526004016117dd90614d48565b60405180910390fd5b6117f06000612c55565b565b60175481565b6000601154905090565b6000600f828154811061183e577f4e487b7100000000000000000000000000000000000000000000000000000000600052603260045260246000fd5b9060005260206000200160009054906101000a900473ffffffffffffffffffffffffffffffffffffffff169050919050565b611878610b50565b73ffffffffffffffffffffffffffffffffffffffff16611896611981565b73ffffffffffffffffffffffffffffffffffffffff16146118ec576040517f08c379a00000000000000000000000000000000000000000000000000000000081526004016118e390614d48565b60405180910390fd5b60006118f6610e97565b905060165482826119079190614ff0565b1115611948576040517f08c379a000000000000000000000000000000000000000000000000000000000815260040161193f90614dc8565b60405180910390fd5b60005b8281101561197b576119688482846119639190614ff0565b612d1b565b808061197390615235565b91505061194b565b50505050565b6000600a60009054906101000a900473ffffffffffffffffffffffffffffffffffffffff16905090565b6119b3610b50565b73ffffffffffffffffffffffffffffffffffffffff166119d1611981565b73ffffffffffffffffffffffffffffffffffffffff1614611a27576040517f08c379a0000000000000000000000000000000000000000000000000000000008152600401611a1e90614d48565b60405180910390fd5b8060108190555050565b606060018054611a4090615203565b80601f0160208091040260200160405190810160405280929190818152602001828054611a6c90615203565b8015611ab95780601f10611a8e57610100808354040283529160200191611ab9565b820191906000526020600020905b815481529060010190602001808311611a9c57829003601f168201915b5050505050905090565b6000600e60008373ffffffffffffffffffffffffffffffffffffffff1673ffffffffffffffffffffffffffffffffffffffff168152602001908152602001600020549050919050565b6000601054905090565b60198054611b2390615203565b80601f0160208091040260200160405190810160405280929190818152602001828054611b4f90615203565b8015611b9c5780601f10611b7157610100808354040283529160200191611b9c565b820191906000526020600020905b815481529060010190602001808311611b7f57829003601f168201915b505050505081565b6000611bae610e97565b9050601854421015611bf5576040517f08c379a0000000000000000000000000000000000000000000000000000000008152600401611bec90614b08565b60405180910390fd5b601554821115611c3a576040517f08c379a0000000000000000000000000000000000000000000000000000000008152600401611c3190614d68565b60405180910390fd5b6016548282611c499190614ff0565b1115611c8a576040517f08c379a0000000000000000000000000000000000000000000000000000000008152600401611c8190614e08565b60405180910390fd5b601754811015611ce95781601154611ca29190615077565b341015611ce4576040517f08c379a0000000000000000000000000000000000000000000000000000000008152600401611cdb90614e28565b60405180910390fd5b611d3a565b81601054611cf79190615077565b341015611d39576040517f08c379a0000000000000000000000000000000000000000000000000000000008152600401611d3090614e28565b60405180910390fd5b5b60005b82811015611d6d57611d5a338284611d559190614ff0565b612d1b565b8080611d6590615235565b915050611d3d565b505050565b611d7a610b50565b73ffffffffffffffffffffffffffffffffffffffff168273ffffffffffffffffffffffffffffffffffffffff161415611de8576040517f08c379a0000000000000000000000000000000000000000000000000000000008152600401611ddf90614be8565b60405180910390fd5b8060056000611df5610b50565b73ffffffffffffffffffffffffffffffffffffffff1673ffffffffffffffffffffffffffffffffffffffff16815260200190815260200160002060008473ffffffffffffffffffffffffffffffffffffffff1673ffffffffffffffffffffffffffffffffffffffff16815260200190815260200160002060006101000a81548160ff0219169083151502179055508173ffffffffffffffffffffffffffffffffffffffff16611ea2610b50565b73ffffffffffffffffffffffffffffffffffffffff167f17307eab39ab6107e8899845ad3d59bd9653f200f220920489ca2b5937696c3183604051611ee79190614aa9565b60405180910390a35050565b60185481565b611f01610b50565b73ffffffffffffffffffffffffffffffffffffffff16611f1f611981565b73ffffffffffffffffffffffffffffffffffffffff1614611f75576040517f08c379a0000000000000000000000000000000000000000000000000000000008152600401611f6c90614d48565b60405180910390fd5b60001515601a60009054906101000a900460ff16151514611fcb576040517f08c379a0000000000000000000000000000000000000000000000000000000008152600401611fc290614e48565b60405180910390fd5b8060199080519060200190611fe19291906138a2565b5050565b611ff6611ff0610b50565b8361291b565b612035576040517f08c379a000000000000000000000000000000000000000000000000000000000815260040161202c90614e68565b60405180910390fd5b61204184848484612d39565b50505050565b61204f610b50565b73ffffffffffffffffffffffffffffffffffffffff1661206d611981565b73ffffffffffffffffffffffffffffffffffffffff16146120c3576040517f08c379a00000000000000000000000000000000000000000000000000000000081526004016120ba90614d48565b60405180910390fd5b8060178190555050565b6120d5610b50565b73ffffffffffffffffffffffffffffffffffffffff166120f3611981565b73ffffffffffffffffffffffffffffffffffffffff1614612149576040517f08c379a000000000000000000000000000000000000000000000000000000000815260040161214090614d48565b60405180910390fd5b6001601a60006101000a81548160ff0219169083151502179055507f92423ccd40e13759d50d24569dcbaccb20ade47247f3cf3e3951a9f29d2048b060196040516121949190614ae6565b60405180910390a1565b60606121a982612702565b6121e8576040517f08c379a00000000000000000000000000000000000000000000000000000000081526004016121df90614da8565b60405180910390fd5b60006121f2612d95565b905060008151116122125760405180602001604052806000815250612240565b8061221c84612e27565b601260405160200161223093929190614988565b6040516020818303038152906040525b915050919050565b6000600d60008373ffffffffffffffffffffffffffffffffffffffff1673ffffffffffffffffffffffffffffffffffffffff168152602001908152602001600020549050919050565b6013805461229e90615203565b80601f01602080910402602001604051908101604052809291908181526020018280546122ca90615203565b80156123175780601f106122ec57610100808354040283529160200191612317565b820191906000526020600020905b8154815290600101906020018083116122fa57829003601f168201915b505050505081565b6060612329610e97565b821061236a576040517f08c379a000000000000000000000000000000000000000000000000000000000815260040161236190614ce8565b60405180910390fd5b6019805461237790615203565b80601f01602080910402602001604051908101604052809291908181526020018280546123a390615203565b80156123f05780601f106123c5576101008083540402835291602001916123f0565b820191906000526020600020905b8154815290600101906020018083116123d357829003601f168201915b50505050509050919050565b6000600c54905090565b6014805461241390615203565b80601f016020809104026020016040519081016040528092919081815260200182805461243f90615203565b801561248c5780601f106124615761010080835404028352916020019161248c565b820191906000526020600020905b81548152906001019060200180831161246f57829003601f168201915b505050505081565b6000600560008473ffffffffffffffffffffffffffffffffffffffff1673ffffffffffffffffffffffffffffffffffffffff16815260200190815260200160002060008373ffffffffffffffffffffffffffffffffffffffff1673ffffffffffffffffffffffffffffffffffffffff16815260200190815260200160002060009054906101000a900460ff16905092915050565b612530610b50565b73ffffffffffffffffffffffffffffffffffffffff1661254e611981565b73ffffffffffffffffffffffffffffffffffffffff16146125a4576040517f08c379a000000000000000000000000000000000000000000000000000000000815260040161259b90614d48565b60405180910390fd5b600073ffffffffffffffffffffffffffffffffffffffff168173ffffffffffffffffffffffffffffffffffffffff161415612614576040517f08c379a000000000000000000000000000000000000000000000000000000000815260040161260b90614b68565b60405180910390fd5b61261d81612c55565b50565b60007f80ac58cd000000000000000000000000000000000000000000000000000000007bffffffffffffffffffffffffffffffffffffffffffffffffffffffff1916827bffffffffffffffffffffffffffffffffffffffffffffffffffffffff191614806126eb57507f5b5e139f000000000000000000000000000000000000000000000000000000007bffffffffffffffffffffffffffffffffffffffffffffffffffffffff1916827bffffffffffffffffffffffffffffffffffffffffffffffffffffffff1916145b806126fb57506126fa82612fd4565b5b9050919050565b60008073ffffffffffffffffffffffffffffffffffffffff166002600084815260200190815260200160002060009054906101000a900473ffffffffffffffffffffffffffffffffffffffff1673ffffffffffffffffffffffffffffffffffffffff1614159050919050565b816004600083815260200190815260200160002060006101000a81548173ffffffffffffffffffffffffffffffffffffffff021916908373ffffffffffffffffffffffffffffffffffffffff160217905550808273ffffffffffffffffffffffffffffffffffffffff166127e18361157a565b73ffffffffffffffffffffffffffffffffffffffff167f8c5be1e5ebec7d5bd14f71427d1e84f3dd0314c0f7b2291e5b200ac8c7c3b92560405160405180910390a45050565b8047101561286a576040517f08c379a000000000000000000000000000000000000000000000000000000000815260040161286190614c28565b60405180910390fd5b60008273ffffffffffffffffffffffffffffffffffffffff1682604051612890906149b9565b60006040518083038185875af1925050503d80600081146128cd576040519150601f19603f3d011682016040523d82523d6000602084013e6128d2565b606091505b5050905080612916576040517f08c379a000000000000000000000000000000000000000000000000000000000815260040161290d90614c08565b60405180910390fd5b505050565b600061292682612702565b612965576040517f08c379a000000000000000000000000000000000000000000000000000000000815260040161295c90614c48565b60405180910390fd5b60006129708361157a565b90508073ffffffffffffffffffffffffffffffffffffffff168473ffffffffffffffffffffffffffffffffffffffff1614806129df57508373ffffffffffffffffffffffffffffffffffffffff166129c784610c64565b73ffffffffffffffffffffffffffffffffffffffff16145b806129f057506129ef8185612494565b5b91505092915050565b8273ffffffffffffffffffffffffffffffffffffffff16612a198261157a565b73ffffffffffffffffffffffffffffffffffffffff1614612a6f576040517f08c379a0000000000000000000000000000000000000000000000000000000008152600401612a6690614d88565b60405180910390fd5b600073ffffffffffffffffffffffffffffffffffffffff168273ffffffffffffffffffffffffffffffffffffffff161415612adf576040517f08c379a0000000000000000000000000000000000000000000000000000000008152600401612ad690614bc8565b60405180910390fd5b612aea83838361303e565b612af560008261276e565b6001600360008573ffffffffffffffffffffffffffffffffffffffff1673ffffffffffffffffffffffffffffffffffffffff1681526020019081526020016000206000828254612b4591906150d1565b925050819055506001600360008473ffffffffffffffffffffffffffffffffffffffff1673ffffffffffffffffffffffffffffffffffffffff1681526020019081526020016000206000828254612b9c9190614ff0565b92505081905550816002600083815260200190815260200160002060006101000a81548173ffffffffffffffffffffffffffffffffffffffff021916908373ffffffffffffffffffffffffffffffffffffffff160217905550808273ffffffffffffffffffffffffffffffffffffffff168473ffffffffffffffffffffffffffffffffffffffff167fddf252ad1be2c89b69c2b068fc378daa952ba7f163c4a11628f55a4df523b3ef60405160405180910390a4505050565b6000600a60009054906101000a900473ffffffffffffffffffffffffffffffffffffffff16905081600a60006101000a81548173ffffffffffffffffffffffffffffffffffffffff021916908373ffffffffffffffffffffffffffffffffffffffff1602179055508173ffffffffffffffffffffffffffffffffffffffff168173ffffffffffffffffffffffffffffffffffffffff167f8be0079c531659141344cd1fd0a4f28419497f9722a3daafe3b4186f6b6457e060405160405180910390a35050565b612d35828260405180602001604052806000815250613152565b5050565b612d448484846129f9565b612d50848484846131ad565b612d8f576040517f08c379a0000000000000000000000000000000000000000000000000000000008152600401612d8690614b48565b60405180910390fd5b50505050565b606060138054612da490615203565b80601f0160208091040260200160405190810160405280929190818152602001828054612dd090615203565b8015612e1d5780601f10612df257610100808354040283529160200191612e1d565b820191906000526020600020905b815481529060010190602001808311612e0057829003601f168201915b5050505050905090565b60606000821415612e6f576040518060400160405280600181526020017f30000000000000000000000000000000000000000000000000000000000000008152509050612fcf565b600082905060005b60008214612ea1578080612e8a90615235565b915050600a82612e9a9190615046565b9150612e77565b60008167ffffffffffffffff811115612ee3577f4e487b7100000000000000000000000000000000000000000000000000000000600052604160045260246000fd5b6040519080825280601f01601f191660200182016040528015612f155781602001600182028036833780820191505090505b5090505b60008514612fc857600182612f2e91906150d1565b9150600a85612f3d919061527e565b6030612f499190614ff0565b60f81b818381518110612f85577f4e487b7100000000000000000000000000000000000000000000000000000000600052603260045260246000fd5b60200101907effffffffffffffffffffffffffffffffffffffffffffffffffffffffffffff1916908160001a905350600a85612fc19190615046565b9450612f19565b8093505050505b919050565b60007f01ffc9a7000000000000000000000000000000000000000000000000000000007bffffffffffffffffffffffffffffffffffffffffffffffffffffffff1916827bffffffffffffffffffffffffffffffffffffffffffffffffffffffff1916149050919050565b613049838383613344565b600073ffffffffffffffffffffffffffffffffffffffff168373ffffffffffffffffffffffffffffffffffffffff16141561308c5761308781613349565b6130cb565b8173ffffffffffffffffffffffffffffffffffffffff168373ffffffffffffffffffffffffffffffffffffffff16146130ca576130c98382613392565b5b5b600073ffffffffffffffffffffffffffffffffffffffff168273ffffffffffffffffffffffffffffffffffffffff16141561310e57613109816134ff565b61314d565b8273ffffffffffffffffffffffffffffffffffffffff168273ffffffffffffffffffffffffffffffffffffffff161461314c5761314b8282613642565b5b5b505050565b61315c83836136c1565b61316960008484846131ad565b6131a8576040517f08c379a000000000000000000000000000000000000000000000000000000000815260040161319f90614b48565b60405180910390fd5b505050565b60006131ce8473ffffffffffffffffffffffffffffffffffffffff1661388f565b15613337578373ffffffffffffffffffffffffffffffffffffffff1663150b7a026131f7610b50565b8786866040518563ffffffff1660e01b81526004016132199493929190614a12565b602060405180830381600087803b15801561323357600080fd5b505af192505050801561326457506040513d601f19601f820116820180604052508101906132619190613c8c565b60015b6132e7573d8060008114613294576040519150601f19603f3d011682016040523d82523d6000602084013e613299565b606091505b506000815114156132df576040517f08c379a00000000000000000000000000000000000000000000000000000000081526004016132d690614b48565b60405180910390fd5b805181602001fd5b63150b7a0260e01b7bffffffffffffffffffffffffffffffffffffffffffffffffffffffff1916817bffffffffffffffffffffffffffffffffffffffffffffffffffffffff19161491505061333c565b600190505b949350505050565b505050565b6008805490506009600083815260200190815260200160002081905550600881908060018154018082558091505060019003906000526020600020016000909190919091505550565b6000600161339f846116b2565b6133a991906150d1565b905060006007600084815260200190815260200160002054905081811461348e576000600660008673ffffffffffffffffffffffffffffffffffffffff1673ffffffffffffffffffffffffffffffffffffffff168152602001908152602001600020600084815260200190815260200160002054905080600660008773ffffffffffffffffffffffffffffffffffffffff1673ffffffffffffffffffffffffffffffffffffffff168152602001908152602001600020600084815260200190815260200160002081905550816007600083815260200190815260200160002081905550505b6007600084815260200190815260200160002060009055600660008573ffffffffffffffffffffffffffffffffffffffff1673ffffffffffffffffffffffffffffffffffffffff16815260200190815260200160002060008381526020019081526020016000206000905550505050565b6000600160088054905061351391906150d1565b9050600060096000848152602001908152602001600020549050600060088381548110613569577f4e487b7100000000000000000000000000000000000000000000000000000000600052603260045260246000fd5b9060005260206000200154905080600883815481106135b1577f4e487b7100000000000000000000000000000000000000000000000000000000600052603260045260246000fd5b906000526020600020018190555081600960008381526020019081526020016000208190555060096000858152602001908152602001600020600090556008805480613626577f4e487b7100000000000000000000000000000000000000000000000000000000600052603160045260246000fd5b6001900381819060005260206000200160009055905550505050565b600061364d836116b2565b905081600660008573ffffffffffffffffffffffffffffffffffffffff1673ffffffffffffffffffffffffffffffffffffffff168152602001908152602001600020600083815260200190815260200160002081905550806007600084815260200190815260200160002081905550505050565b600073ffffffffffffffffffffffffffffffffffffffff168273ffffffffffffffffffffffffffffffffffffffff161415613731576040517f08c379a000000000000000000000000000000000000000000000000000000000815260040161372890614d08565b60405180910390fd5b61373a81612702565b1561377a576040517f08c379a000000000000000000000000000000000000000000000000000000000815260040161377190614b88565b60405180910390fd5b6137866000838361303e565b6001600360008473ffffffffffffffffffffffffffffffffffffffff1673ffffffffffffffffffffffffffffffffffffffff16815260200190815260200160002060008282546137d69190614ff0565b92505081905550816002600083815260200190815260200160002060006101000a81548173ffffffffffffffffffffffffffffffffffffffff021916908373ffffffffffffffffffffffffffffffffffffffff160217905550808273ffffffffffffffffffffffffffffffffffffffff16600073ffffffffffffffffffffffffffffffffffffffff167fddf252ad1be2c89b69c2b068fc378daa952ba7f163c4a11628f55a4df523b3ef60405160405180910390a45050565b600080823b905060008111915050919050565b8280546138ae90615203565b90600052602060002090601f0160209004810192826138d05760008555613917565b82601f106138e957805160ff1916838001178555613917565b82800160010185558215613917579182015b828111156139165782518255916020019190600101906138fb565b5b5090506139249190613928565b5090565b5b80821115613941576000816000905550600101613929565b5090565b600061395861395384614ef4565b614ec3565b90508281526020810184848401111561397057600080fd5b61397b8482856151c1565b509392505050565b600061399661399184614f24565b614ec3565b9050828152602081018484840111156139ae57600080fd5b6139b98482856151c1565b509392505050565b6000813590506139d08161537c565b92915050565b6000813590506139e581615393565b92915050565b6000813590506139fa816153aa565b92915050565b600081359050613a0f816153c1565b92915050565b600081519050613a24816153c1565b92915050565b600082601f830112613a3b57600080fd5b8135613a4b848260208601613945565b91505092915050565b600082601f830112613a6557600080fd5b8135613a75848260208601613983565b91505092915050565b600081359050613a8d816153d8565b92915050565b600060208284031215613aa557600080fd5b6000613ab3848285016139c1565b91505092915050565b600060208284031215613ace57600080fd5b6000613adc848285016139d6565b91505092915050565b60008060408385031215613af857600080fd5b6000613b06858286016139c1565b9250506020613b17858286016139c1565b9150509250929050565b600080600060608486031215613b3657600080fd5b6000613b44868287016139c1565b9350506020613b55868287016139c1565b9250506040613b6686828701613a7e565b9150509250925092565b60008060008060808587031215613b8657600080fd5b6000613b94878288016139c1565b9450506020613ba5878288016139c1565b9350506040613bb687828801613a7e565b925050606085013567ffffffffffffffff811115613bd357600080fd5b613bdf87828801613a2a565b91505092959194509250565b60008060408385031215613bfe57600080fd5b6000613c0c858286016139c1565b9250506020613c1d858286016139eb565b9150509250929050565b60008060408385031215613c3a57600080fd5b6000613c48858286016139c1565b9250506020613c5985828601613a7e565b9150509250929050565b600060208284031215613c7557600080fd5b6000613c8384828501613a00565b91505092915050565b600060208284031215613c9e57600080fd5b6000613cac84828501613a15565b91505092915050565b600060208284031215613cc757600080fd5b600082013567ffffffffffffffff811115613ce157600080fd5b613ced84828501613a54565b91505092915050565b600060208284031215613d0857600080fd5b6000613d1684828501613a7e565b91505092915050565b6000613d2b838361496a565b60208301905092915050565b613d408161518b565b82525050565b613d4f81615105565b82525050565b6000613d6082614f79565b613d6a8185614fa7565b9350613d7583614f54565b8060005b83811015613da6578151613d8d8882613d1f565b9750613d9883614f9a565b925050600181019050613d79565b5085935050505092915050565b613dbc81615129565b82525050565b6000613dcd82614f84565b613dd78185614fb8565b9350613de78185602086016151d0565b613df08161536b565b840191505092915050565b6000613e0682614f8f565b613e108185614fd4565b9350613e208185602086016151d0565b613e298161536b565b840191505092915050565b6000613e3f82614f8f565b613e498185614fe5565b9350613e598185602086016151d0565b80840191505092915050565b60008154613e7281615203565b613e7c8186614fd4565b94506001821660008114613e975760018114613ea957613edc565b60ff1983168652602086019350613edc565b613eb285614f64565b60005b83811015613ed457815481890152600182019150602081019050613eb5565b808801955050505b50505092915050565b60008154613ef281615203565b613efc8186614fe5565b94506001821660008114613f175760018114613f2857613f5b565b60ff19831686528186019350613f5b565b613f3185614f64565b60005b83811015613f5357815481890152600182019150602081019050613f34565b838801955050505b50505092915050565b6000613f71601883614fd4565b91507f53616c6520686173206e6f7420737461727465642079657400000000000000006000830152602082019050919050565b6000613fb1602b83614fd4565b91507f455243373231456e756d657261626c653a206f776e657220696e646578206f7560008301527f74206f6620626f756e64730000000000000000000000000000000000000000006020830152604082019050919050565b6000614017603283614fd4565b91507f4552433732313a207472616e7366657220746f206e6f6e20455243373231526560008301527f63656976657220696d706c656d656e74657200000000000000000000000000006020830152604082019050919050565b600061407d602683614fd4565b91507f4f776e61626c653a206e6577206f776e657220697320746865207a65726f206160008301527f64647265737300000000000000000000000000000000000000000000000000006020830152604082019050919050565b60006140e3601c83614fd4565b91507f4552433732313a20746f6b656e20616c7265616479206d696e746564000000006000830152602082019050919050565b6000614123602683614fd4565b91507f5061796d656e7453706c69747465723a206163636f756e7420686173206e6f2060008301527f73686172657300000000000000000000000000000000000000000000000000006020830152604082019050919050565b6000614189602483614fd4565b91507f4552433732313a207472616e7366657220746f20746865207a65726f2061646460008301527f72657373000000000000000000000000000000000000000000000000000000006020830152604082019050919050565b60006141ef601983614fd4565b91507f4552433732313a20617070726f766520746f2063616c6c6572000000000000006000830152602082019050919050565b600061422f603a83614fd4565b91507f416464726573733a20756e61626c6520746f2073656e642076616c75652c207260008301527f6563697069656e74206d617920686176652072657665727465640000000000006020830152604082019050919050565b6000614295601d83614fd4565b91507f416464726573733a20696e73756666696369656e742062616c616e63650000006000830152602082019050919050565b60006142d5602c83614fd4565b91507f4552433732313a206f70657261746f7220717565727920666f72206e6f6e657860008301527f697374656e7420746f6b656e00000000000000000000000000000000000000006020830152604082019050919050565b600061433b602b83614fd4565b91507f5061796d656e7453706c69747465723a206163636f756e74206973206e6f742060008301527f647565207061796d656e740000000000000000000000000000000000000000006020830152604082019050919050565b60006143a1603883614fd4565b91507f4552433732313a20617070726f76652063616c6c6572206973206e6f74206f7760008301527f6e6572206e6f7220617070726f76656420666f7220616c6c00000000000000006020830152604082019050919050565b6000614407602a83614fd4565b91507f4552433732313a2062616c616e636520717565727920666f7220746865207a6560008301527f726f2061646472657373000000000000000000000000000000000000000000006020830152604082019050919050565b600061446d602983614fd4565b91507f4552433732313a206f776e657220717565727920666f72206e6f6e657869737460008301527f656e7420746f6b656e00000000000000000000000000000000000000000000006020830152604082019050919050565b60006144d3600a83614fd4565b91507f496e76616c6964204944000000000000000000000000000000000000000000006000830152602082019050919050565b6000614513602083614fd4565b91507f4552433732313a206d696e7420746f20746865207a65726f20616464726573736000830152602082019050919050565b6000614553602c83614fd4565b91507f4552433732313a20617070726f76656420717565727920666f72206e6f6e657860008301527f697374656e7420746f6b656e00000000000000000000000000000000000000006020830152604082019050919050565b60006145b9602083614fd4565b91507f4f776e61626c653a2063616c6c6572206973206e6f7420746865206f776e65726000830152602082019050919050565b60006145f9602d83614fd4565b91507f596f752063616e206d696e742061206d6178696d756d206f6620323020416c6c60008301527f796d616c73206174206f6e6365000000000000000000000000000000000000006020830152604082019050919050565b600061465f602983614fd4565b91507f4552433732313a207472616e73666572206f6620746f6b656e2074686174206960008301527f73206e6f74206f776e00000000000000000000000000000000000000000000006020830152604082019050919050565b60006146c5602f83614fd4565b91507f4552433732314d657461646174613a2055524920717565727920666f72206e6f60008301527f6e6578697374656e7420746f6b656e00000000000000000000000000000000006020830152604082019050919050565b600061472b601e83614fd4565b91507f45786365656473206d6178696d756d20416c6c796d616c20737570706c7900006000830152602082019050919050565b600061476b602183614fd4565b91507f4552433732313a20617070726f76616c20746f2063757272656e74206f776e6560008301527f72000000000000000000000000000000000000000000000000000000000000006020830152604082019050919050565b60006147d1601a83614fd4565b91507f45786365656473206d617820416c6c796d616c20737570706c790000000000006000830152602082019050919050565b6000614811601983614fd4565b91507f45746865722073656e74206973206e6f7420636f7272656374000000000000006000830152602082019050919050565b6000614851601683614fd4565b91507f4c6963656e736520616c7265616479206c6f636b6564000000000000000000006000830152602082019050919050565b6000614891600083614fc9565b9150600082019050919050565b60006148ab603183614fd4565b91507f4552433732313a207472616e736665722063616c6c6572206973206e6f74206f60008301527f776e6572206e6f7220617070726f7665640000000000000000000000000000006020830152604082019050919050565b6000614911602c83614fd4565b91507f455243373231456e756d657261626c653a20676c6f62616c20696e646578206f60008301527f7574206f6620626f756e647300000000000000000000000000000000000000006020830152604082019050919050565b61497381615181565b82525050565b61498281615181565b82525050565b60006149948286613e34565b91506149a08285613e34565b91506149ac8284613ee5565b9150819050949350505050565b60006149c482614884565b9150819050919050565b60006020820190506149e36000830184613d46565b92915050565b60006040820190506149fe6000830185613d37565b614a0b6020830184614979565b9392505050565b6000608082019050614a276000830187613d46565b614a346020830186613d46565b614a416040830185614979565b8181036060830152614a538184613dc2565b905095945050505050565b6000604082019050614a736000830185613d46565b614a806020830184614979565b9392505050565b60006020820190508181036000830152614aa18184613d55565b905092915050565b6000602082019050614abe6000830184613db3565b92915050565b60006020820190508181036000830152614ade8184613dfb565b905092915050565b60006020820190508181036000830152614b008184613e65565b905092915050565b60006020820190508181036000830152614b2181613f64565b9050919050565b60006020820190508181036000830152614b4181613fa4565b9050919050565b60006020820190508181036000830152614b618161400a565b9050919050565b60006020820190508181036000830152614b8181614070565b9050919050565b60006020820190508181036000830152614ba1816140d6565b9050919050565b60006020820190508181036000830152614bc181614116565b9050919050565b60006020820190508181036000830152614be18161417c565b9050919050565b60006020820190508181036000830152614c01816141e2565b9050919050565b60006020820190508181036000830152614c2181614222565b9050919050565b60006020820190508181036000830152614c4181614288565b9050919050565b60006020820190508181036000830152614c61816142c8565b9050919050565b60006020820190508181036000830152614c818161432e565b9050919050565b60006020820190508181036000830152614ca181614394565b9050919050565b60006020820190508181036000830152614cc1816143fa565b9050919050565b60006020820190508181036000830152614ce181614460565b9050919050565b60006020820190508181036000830152614d01816144c6565b9050919050565b60006020820190508181036000830152614d2181614506565b9050919050565b60006020820190508181036000830152614d4181614546565b9050919050565b60006020820190508181036000830152614d61816145ac565b9050919050565b60006020820190508181036000830152614d81816145ec565b9050919050565b60006020820190508181036000830152614da181614652565b9050919050565b60006020820190508181036000830152614dc1816146b8565b9050919050565b60006020820190508181036000830152614de18161471e565b9050919050565b60006020820190508181036000830152614e018161475e565b9050919050565b60006020820190508181036000830152614e21816147c4565b9050919050565b60006020820190508181036000830152614e4181614804565b9050919050565b60006020820190508181036000830152614e6181614844565b9050919050565b60006020820190508181036000830152614e818161489e565b9050919050565b60006020820190508181036000830152614ea181614904565b9050919050565b6000602082019050614ebd6000830184614979565b92915050565b6000604051905081810181811067ffffffffffffffff82111715614eea57614ee961533c565b5b8060405250919050565b600067ffffffffffffffff821115614f0f57614f0e61533c565b5b601f19601f8301169050602081019050919050565b600067ffffffffffffffff821115614f3f57614f3e61533c565b5b601f19601f8301169050602081019050919050565b6000819050602082019050919050565b60008190508160005260206000209050919050565b600081519050919050565b600081519050919050565b600081519050919050565b6000602082019050919050565b600082825260208201905092915050565b600082825260208201905092915050565b600081905092915050565b600082825260208201905092915050565b600081905092915050565b6000614ffb82615181565b915061500683615181565b9250827fffffffffffffffffffffffffffffffffffffffffffffffffffffffffffffffff0382111561503b5761503a6152af565b5b828201905092915050565b600061505182615181565b915061505c83615181565b92508261506c5761506b6152de565b5b828204905092915050565b600061508282615181565b915061508d83615181565b9250817fffffffffffffffffffffffffffffffffffffffffffffffffffffffffffffffff04831182151516156150c6576150c56152af565b5b828202905092915050565b60006150dc82615181565b91506150e783615181565b9250828210156150fa576150f96152af565b5b828203905092915050565b600061511082615161565b9050919050565b600061512282615161565b9050919050565b60008115159050919050565b60007fffffffff0000000000000000000000000000000000000000000000000000000082169050919050565b600073ffffffffffffffffffffffffffffffffffffffff82169050919050565b6000819050919050565b60006151968261519d565b9050919050565b60006151a8826151af565b9050919050565b60006151ba82615161565b9050919050565b82818337600083830152505050565b60005b838110156151ee5780820151818401526020810190506151d3565b838111156151fd576000848401525b50505050565b6000600282049050600182168061521b57607f821691505b6020821081141561522f5761522e61530d565b5b50919050565b600061524082615181565b91507fffffffffffffffffffffffffffffffffffffffffffffffffffffffffffffffff821415615273576152726152af565b5b600182019050919050565b600061528982615181565b915061529483615181565b9250826152a4576152a36152de565b5b828206905092915050565b7f4e487b7100000000000000000000000000000000000000000000000000000000600052601160045260246000fd5b7f4e487b7100000000000000000000000000000000000000000000000000000000600052601260045260246000fd5b7f4e487b7100000000000000000000000000000000000000000000000000000000600052602260045260246000fd5b7f4e487b7100000000000000000000000000000000000000000000000000000000600052604160045260246000fd5b6000601f19601f8301169050919050565b61538581615105565b811461539057600080fd5b50565b61539c81615117565b81146153a757600080fd5b50565b6153b381615129565b81146153be57600080fd5b50565b6153ca81615135565b81146153d557600080fd5b50565b6153e181615181565b81146153ec57600080fd5b5056fea2646970667358221220f7a1ad2e29b51bc687a313fb91a98a1472492e53948172b9a98803b847c336b764736f6c6343000800003368747470733a2f2f7777772e616c6c796d616c732e636c75622f6d657461646174612f",
  "linkReferences": {},
  "deployedLinkReferences": {}
}